:020000040800F2
:100000004049002009020008F9020008D102000856
:10001000E5020008B90200087504000800000000AD
:10002000000000000000000000000000E7030008DE
:10003000CD02000800000000DF030008EF03000805
:1000400023020008230200082302000823020008FC
:1000500023020008230200082302000823020008EC
:1000600023020008230200082302000823020008DC
:1000700023020008230200082302000823020008CC
:1000800023020008230200082302000823020008BC
:1000900023020008230200082302000823020008AC
:1000A000230200082302000823020008230200089C
:1000B000230200082302000823020008230200088C
:1000C000230200082302000823020008230200087C
:1000D000230200082302000823020008230200086C
:1000E000230200082302000823020008230200085C
:1000F000230200082302000823020008230200084C
:10010000230200082302000823020008230200083B
:10011000230200082302000823020008230200082B
:10012000230200082302000823020008230200081B
:10013000DFF810D000F0AEF800480047890700084B
:10014000AFF30080404900202C4B19680868B0E8E4
:10015000F04F80F30988BFF36F8F4FF0000080F3FA
:10016000118870470000000008480068006880F3AC
:1001700008884FF0000080F3148862B661B6BFF3C0
:100180004F8FBFF36F8F00DF00BF00BF08ED00E0AF
:10019000DFF80C00016841F470010160704700BF96
:1001A00088ED00E0EFF30980BFF36F8F134B1A68FF
:1001B0001EF0100F08BF20ED108A20E9F04F1060EC
:1001C00009B44FF0500080F31188BFF34F8FBFF395
:1001D0006F8F01F0FFFB4FF0000080F3118809BC26
:1001E00019680868B0E8F04F1EF0100F08BFB0ECB7
:1001F000108A80F30988BFF36F8F704708000020D2
:10020000EFF3058070470000064880470648004726
:10021000FEE7FEE7FEE7FEE7FEE7FEE7FEE7FEE7B6
:10022000FEE7FEE70504000831010008D2B201E054
:1002300000F8012B491EFBD270470022F6E710B5EB
:1002400013460A4604461946FFF7F0FF204610BD44
:100250000022CBB20178994200D10246401C00290D
:10026000F8D11046704730B50B46014600202022D9
:10027000012409E021FA02F59D4205D303FA02F5B3
:10028000491B04FA02F52844151EA2F10102F1DC13
:1002900030BD0000064C074D06E0E06840F0010369
:1002A00094E8070098471034AC42F6D3FFF744FFB8
:1002B000F822000818230008024903A000F0E4F81F
:1002C00000BFFEE71820000825730A0070470000F1
:1002D000024903A000F0D8F800BFFEE7F41F0008B1
:1002E00025730A00024903A000F0CEF800BFFEE724
:1002F0000620000825730A0010B5024902A000F08C
:10030000C3F810BDE81F000825730A0010B50028C7
:1003100007DA0A07140E054A00F00F031B1FD45416
:1003200003E00A07130E024A135410BD18ED00E053
:1003300000E400E000A070475631302E342E332008
:100340004C545320506174636820320010B5FFF79D
:10035000F1FF0446214604A000F096F84FF44070E7
:1003600000F024FA10BD00004F53205665727369E7
:100370006F6E3A2025730A0070B50446254628465C
:1003800001F072FA70BD10B501F0B8FA10BD2DE998
:10039000FC4704460D4616461F46DDE90A893B46E2
:1003A000324629462046CDE9008901F07FFC01282C
:1003B00001D1BDE8FC870020FBE710B504462046CC
:1003C00001F0D0F810BD10B50446204600F0F8F951
:1003D00010BD10B50446204601F0D8F810BD10B588
:1003E000FFF7E0FE10BD10B5FFF7AEFE10BD10B573
:1003F00001F08CFC012801D001F03EFC00F040F936
:1004000010BD000008B51848006840F47000164997
:1004100008601648006840F001001449086008466A
:10042000406840F0800048600020009002E00098A2
:10043000401C009044F6206100988842F7D30020C9
:100440000A494860C86208460068094908400749E7
:1004500008604FF41F0088600846006820F4802080
:10046000086000F0A3FE08BD88ED00E00010024027
:10047000FFFFF6FE024903A000F006F800BFFEE70A
:100480002920000825730A000FB4054B10B503A9F5
:10049000044A029800F018F810BC5DF814FB000044
:1004A000990600087400002002E008C8121F08C165
:1004B000002AFAD170477047002001E001C1121FE5
:1004C000002AFBD1704700002DE9FF4F8BB09A4600
:1004D0000F460546002606E025280BD052460D990A
:1004E00090476D1C761C28780028F5D10FB0304657
:1004F000BDE8F08F0024A0460122604900E00443DB
:1005000015F8013F203B02FA03F00842F7D12878A2
:100510002E2817D115F8010F44F004042A280ED014
:100520006FF02F022878A0F1300109290AD808EBD2
:10053000880102EB410100EB01086D1CF2E757F85E
:10054000048B6D1C287869283ED006DC0028CDD0AD
:1005500063280BD0642804D136E0732810D07528A6
:100560004BD052460D999047761C85E017F8040B46
:100570008DF8000000208DF80100E946012003E01D
:1005800057F8049B4FF0FF3061074FF0000401D48F
:100590000AE0641C44450DDA8442FADB19F80410C1
:1005A0000029F6D106E0641C8442FCDB19F8041033
:1005B0000029F8D1264404E019F8010B52460D99A0
:1005C0009047641EF8D257E001CF4FF00A0B002885
:1005D00002DA40422D2102E0210504D52B218DF8BD
:1005E0002410012103E0E10705D02021F7E70DF1F8
:1005F000200908910CE00021F9E701CF4FF00A0B28
:10060000F9E75946FFF72FFE01F1300209F8012DF5
:100610000028F6D1ADEB090000F1200B600701D4F2
:100620004FF00108D84502DDA8EB0B0000E00020E8
:100630008046002406E009A85246005D0D999047C7
:10064000641C761C08988442F5DB04E03020524696
:100650000D999047761CB8F10001A8F10108F5DC6E
:1006600005E019F8010B52460D999047761CBBF135
:100670000001ABF1010BF4DC6D1C34E7092801002B
:100680000448006820B103480068401E0149086022
:10069000704700000000002070B504460D4600BF02
:1006A0000721054800F003FF0028F9D0E1B2024815
:1006B00000F0ACFE204670BD0044004000A0704732
:1006C0004A616E202035203230323200F0B50446C7
:1006D00016460025002201F00F0501F0100747B172
:1006E000042E05D145F00305E76B1F43E76300E0E7
:1006F000354300201EE0012787401F40C7B1226814
:100700004FEA800C0F2707FA0CF7BA43870005FA67
:1007100007F73A43282904D1012787401F40676122
:1007200005E0482903D1012787401F402761226047
:10073000471CB8B20828DED3082022E001278740F2
:100740001F40E7B16268A0F108074FEA870C0F2746
:1007500007FA0CF7BA43A0F10807BF0005FA07F73C
:100760003A43282904D1012787401F40676105E0EB
:10077000482903D1012787401F4027616260471C39
:10078000B8B21028DAD3F0BD00F032FD00F0B4FDAD
:10079000FFF7DCFD00F00EFDFFF7F5FD02E002A023
:1007A000FFF772FEFBE70000210000000249014351
:1007B000024A1160704700000000FA050CED00E0ED
:1007C00070B5044614B90D48006800E0204605469F
:1007D00085B900BF502080F31188BFF34F8FBFF35E
:1007E0006F8F00BF40F65512054906A0FFF74CFE7B
:1007F00000BFFEE705F1340070BD000008000020D6
:10080000EF2000083C2121214F5320417373657272
:10081000742121213E2066756E63203D2025732CB6
:10082000206C696E653D25640A0000002DE9F041E9
:1008300005460E461C4807681C480068001D00F06D
:100840007DFE50B91948006890F82C1001208840AE
:1008500017490968814316480160681C38B936B1E8
:1008600012480168091D134800F0E6FE1AE07C19E1
:100870000E4800684460BC4207D20C480168091D5C
:100880000D48006800F0BEFE0CE008480168091D34
:100890000A48006800F0B6FE09480068844201D2A8
:1008A00007480460BDE8F0811C000020080000201B
:1008B000200000202C010020100000200C0000204F
:1008C0003800002010B5044600F0C2FE234800683E
:1008D000401C224908602248006840B92048046052
:1008E0000846006801280DD100F040F90AE01D48D3
:1008F000006838B91A480068C06AE16A884201D8BD
:100900001748046018480068401C1749086094F8AC
:100910002C100120884015490968084313490860D4
:10092000E16A01EB8101124A02EB8100211D00F016
:1009300083FE00F0D5FE0B48006868B108480068E7
:10094000C06AE16A884207D24FF0805009490860C6
:10095000BFF34F8FBFF36F8F10BD00001800002052
:100960000800002024000020340000202000002087
:100970007800002004ED00E010B516E000F068FEFD
:100980000C48C068C468201D00F0D8FD0A48006803
:10099000401E0949086009480068401E0749086070
:1009A00000F09EFE204600F00BF804480068002886
:1009B000E4D110BD18010020180000201400002010
:1009C00010B50446206B00F0C7FE204600F0C4FEC0
:1009D00010BD000030B54FF48843174800F00704FD
:1009E0002CB1C01D20F00700134C041B1B1B02463A
:1009F000124C22600024114D6C60D018083820F091
:100A000007000F4C206000240D4D2D686C600C4DCC
:100A10002D682C601146441A4C60094C24680C6007
:100A2000084D4C682C60084D4C682C604FF0004419
:100A3000064D2C6030BD0000400100205400002015
:100A40005C00002064000020600000207000002096
:100A500000BFFFF791FF064800680128F9D94FF061
:100A6000805004490860BFF34F8FBFF36F8FF0E7EA
:100A70007800002004ED00E02DE9F05F82460E468C
:100A800017469B46DDF828800C9CB900A522206BF8
:100A9000FFF7CCFB781E216B01EB800929F00709D9
:100AA00009F0070008B9012000E0002080B900BF6C
:100AB000502080F31188BFF34F8FBFF36F8F00BFBB
:100AC00040F25E321E491FA0FFF7DEFC00BFFEE7CA
:100AD00086B1002507E0715D04F134004155705D79
:100AE00000B902E06D1C102DF5D300BF002143209A
:100AF000015502E0002084F83400B8F1050F01D35D
:100B00004FF00408C4F82C80201D00F078FD04F19B
:100B1000180000F074FD2461C8F10500A061646252
:100B20000020606484F848005A465146484600F068
:100B3000C1F920600B9808B10B980460BDE8F09FE4
:100B40003C2000083C2121214F53204173736572E2
:100B5000742121213E2066756E63203D2025732C73
:100B6000206C696E653D25640A00000010B5002404
:100B700007E004EB84010F4A02EB810000F032FD34
:100B8000641C052CF5D30C4800F02CFD0B4800F03C
:100B900029FD0B4800F026FD0A4800F023FD0A4815
:100BA00000F020FD0448094908600448084908602D
:100BB00010BD000078000020DC000020F0000020C4
:100BC00004010020180100202C0100200C0000204E
:100BD0001000002010B50146164800E000680368C8
:100BE0008B42FBD30246436813448B4204D14368D3
:100BF0004C682344436001460A464B68134404682A
:100C0000A34211D10C4C03682468A34208D04B685E
:100C10000468646823444B6003681B680B6005E04C
:100C2000054B1B680B6001E003680B60884200D035
:100C3000016010BD540000205C00002009480068DD
:100C4000006808B9012000E0002020B14FF0FF301B
:100C50000549086005E003480068C068006802496B
:100C6000086070470C000020380000200246002178
:100C700001E0521C491C1078A528FAD0890888B2D6
:100C80007047000011480068401C08B9012000E0CE
:100C9000002078B900BF502080F31188BFF34F8F38
:100CA000BFF36F8F00BFE72209490AA0FFF7ECFBF3
:100CB00000BFFEE700BF502080F31188BFF34F8FC5
:100CC000BFF36F8F00BF00BFFEE7000048000020A9
:100CD000662200083C2121214F5320417373657225
:100CE000742121213E2066756E63203D2025732CE2
:100CF000206C696E653D25640A0000002DE9F04115
:100D000004464FF0000800F05DFE5948006808B93D
:100D1000FFF760FE57480068204000287ED1002C75
:100D20002CD004F10800A04228D9083404F00700B0
:100D300018B304F00700C0F108002044A0421BD9FA
:100D400004F00700C0F10800044404F0070008B9EB
:100D5000012000E0002080B900BF502080F31188FE
:100D6000BFF34F8FBFF36F8F00BF9A22424943A05A
:100D7000FFF78AFB00BFFEE7002400E00024002C00
:100D800059D048480068844255D8474E30460568D7
:100D900001E02E462D686868A04202D2286800282B
:100DA000F7D133480068854245D0306800F1080823
:100DB000286830606868001B10281ED92F1907F0BA
:100DC000070008B9012000E0002078B900BF5020DA
:100DD00080F31188BFF34F8FBFF36F8F00BFCD2219
:100DE000254926A0FFF750FB00BFFEE76868001BFF
:100DF00078606C603846FFF7EDFE2A49686809683C
:100E0000081A284908600846006828490968884285
:100E100003D2244800682549086000E00BE015492A
:100E200068680968084368600020286020480068F6
:100E3000401C1F49086001F039F808F0070008B9A4
:100E4000012000E0002080B900BF502080F311880D
:100E5000BFF34F8FBFF36F8F00BF4FF48772064908
:100E600006A0FFF711FB00BFFEE74046BDE8F0819A
:100E70005C00002070000020E12200083C212121BC
:100E80004F53204173736572742121213E20667592
:100E90006E63203D2025732C206C696E653D2564B2
:100EA0000A000000600000205400002064000020C0
:100EB00068000020001F4FF080730360001F21F0C6
:100EC00001030360001F054B036014380260001F1C
:100ED0006FF002030360203870470000850C0008A3
:100EE0002DE9F04F8CB0074600200A904AA090E808
:100EF000004CC068CDE905BECDF810A007900FF2F8
:100F00001C1ADAE9000ACDE9020A0FF2101ADAE92E
:100F1000000ACDE9000A44484068C0F381000B9004
:100F20000B9820B1012804D002283FD103E03F4AAA
:100F30003EE03E4A3CE03C48406800F4803CBCF562
:100F4000803F12D13848C06A00F08048B8F1000FE5
:100F500001D1364C00E0364C3348406800F400398B
:100F6000B9F5003F02D1334C00E0324C2E484068C6
:100F7000C0F383412C48406800F0006008B141F0A4
:100F800010012948406800F0804008B141F020017C
:100F90000F2901D2891C06E00F2903D33E2901D86D
:100FA000491C00E03F2104FB01F201E01F4A00BFA1
:100FB00000BF1D484068C0F3031504A8465D22FA2F
:100FC00006F319484068C0F3022502A8465D23FADB
:100FD00006F0099014484068C0F3C2251DF805606A
:100FE00023FA06F0089037B1012F06D0022F06D061
:100FF000032F0AD106E00A9208E00A9306E0099856
:101000000A9003E008980A9000E000BF00BF0A9829
:101010000CB0BDE8F08F00000000000000000000F0
:1010200001020304060708090010024000127A00BA
:10103000006CDC0200093D00064A02EB90110968D1
:1010400000F01F0301229A401143024B03EB901260
:101050001160704700100240064A02EB90110968C7
:1010600000F01F0301229A409143024B03EB9012C0
:101070001160704700100240064A02EB90110968A7
:1010800000F01F0301229A401143024B03EB901220
:101090001160704700100240002000213F4A126892
:1010A00042F480323D4B1A6000BF401C3B4A12683C
:1010B00002F4003119B94FF6FF729042F5D1374A68
:1010C000126802F400320AB900BFFEE7334AD2695F
:1010D00042F08052314BDA61314A126842F44042A8
:1010E0002F4B1A602D4A52682C4B5A601A46526890
:1010F0005A601A46526842F480625A601A46526830
:1011000022F440325A601A46526842F440325A6021
:101110001A465268234B1A40204B5A601A465268AE
:10112000214B1A431D4B5A601A46126842F08072D6
:101130001A6000BF194A126802F00072002AF9D042
:10114000174A126842F48032154B1A6000BF144AE5
:10115000526802F48032002AF9D0114A126842F42F
:1011600000320F4B1A6000BF0D4A526802F4003281
:10117000002AF9D0094A526822F00302074B5A604C
:101180001A46526842F002025A6000BF034A52688F
:1011900002F00802002AF9D0704700000010024057
:1011A00000700040FFFFC3B70000340810B5FFF720
:1011B00073FF10BD10B5FFF781FA0446224603A164
:1011C00004A0FFF761F900F083F810BD56302E310E
:1011D00000000000536F6674776172652056657277
:1011E00073696F6E3A2025732025730A0A00000088
:1011F00010B5124800684FF47A71B0FBF1F4601E2C
:10120000B0F1807F01D301200FE0601E4FF0E0219C
:1012100048610F214FF0FF30FFF778F800204FF0C2
:10122000E021886107200861002008B100BFFEE7C7
:101230000021481EFFF76AF810BD000004000020DE
:101240001CB51CE00020FFF7C4F804460020FFF79F
:10125000B4F805460020FFF7B6F807465C2108A061
:10126000FEF7F6FF461C3B46152231460CA0CDE9A1
:101270000054FFF709F94FF47A70FFF77DF8E1E7C2
:101280002E2E5C736F757263655C73797374656D14
:101290005C746573745F7461736B2E63000000008F
:1012A0005B445D5B25733A25645D207461736B3A22
:1012B0002025732C2066726565737461636B3A2018
:1012C00025642C2070726F693A2025640A000000A2
:1012D0001CB50020012103460A02CDE9001002A13D
:1012E0000448FFF754F81CBD746573745F74617330
:1012F0006B0000004112000810B540F20260FFF7D9
:101300009BFE40F21170FFF797FE04230322182181
:101310001848FFF7DBF90823032204211548FFF7DB
:10132000D5F9154800F076F84FF4E131124800F095
:1013300025F80021104800F0F9F800210E4800F0CF
:10134000D5F800210C4800F0E1F800210A4800F02F
:10135000C5F80021084800F0B9F80421064800F05B
:10136000CDF80821044800F0D9F8034800F09AF8B5
:1013700010BD000000080140004400402DE9F04786
:1013800004460D460027B846B94600261D49601A96
:101390008C421CD006DC1C48204470B1B0F5806F34
:1013A0001FD10FE0B0F5806F16D0B0F56C4F18D19B
:1013B0000320FFF795FD074614E00220FFF790FD9C
:1013C00007460FE00220FFF78BFD07460AE00220E8
:1013D000FFF786FD074605E00220FFF781FD07467F
:1013E00000E000BF00BF07EB5500B0FBF5F64FF67D
:1013F000F07006EA000806F00F0948EA0900A0604C
:10140000BDE8F087004C004000BCFFBFC1F30802FC
:101410004260704710B504462049601A8C4228D0BB
:1014200006DC1F48204490B1B0F5806F33D117E03F
:10143000B0F5806F26D0B0F56C4F2CD140F20E3055
:10144000FFF71AFE40F20E30FFF706FE24E040F2EE
:101450001140FFF711FE40F21140FFF7FDFD1BE0C8
:1014600040F21240FFF708FE40F21240FFF7F4FD91
:1014700012E040F21340FFF7FFFD40F21340FFF788
:10148000EBFD09E040F21440FFF7F6FD40F2144096
:10149000FFF7E2FD00E000BF00BF10BD004C0040C0
:1014A00000BCFFBFC16841F40051C160704710B576
:1014B000024602EB9110006801F01F040123A340D3
:1014C000184008B1012010BD0020FCE70A460021A9
:1014D000416921F400711143416170470A460021BE
:1014E000416921F48071114341617047C26822F45F
:1014F000C062C260C2680A43C26070470A460021E7
:10150000C16821F004011143C1607047026922F4EF
:101510004052026102690A43026170470A46002193
:10152000C16821F008011143C1607047C26822F40C
:101530008052C260C2680A43C260704701460A69AD
:10154000D1E901309860D1E90103586050688842C0
:1015500001D188685060002008611068401E10604A
:10156000106870472DE9F041044614B90648006838
:1015700000E0204607463D6B2846FFF777FB06460E
:101580003046BDE8F08100000800002070B5044638
:1015900000F05EF814B90548006800E020460646F1
:1015A000F56A00F09DF8284670BD00000800002094
:1015B00070B505460C46214601A0FEF765FF70BDDB
:1015C0003C2121214F5320737461636B206F76653A
:1015D00072666C6F772121213E207461736B3A2013
:1015E00025730A0000F1080141604FF0FF3181606E
:1015F00000F10801C1600161002101607047002114
:101600000161704710B502460B685C1C0CB910698B
:1016100007E002F1080000E04068446824689C424A
:10162000FAD944684C604C68A160886041600A61E6
:101630001468641C146010BD42684A6093688B6033
:10164000936859609160086103685B1C0360704790
:1016500010B500BF502080F31188BFF34F8FBFF348
:101660006F8F00BF11480068401C10490860084691
:101670000068012818D10E480068C0B208B90120DE
:1016800000E0002080B900BF502080F31188BFF334
:101690004F8FBFF36F8F00BF4FF4DA72054906A07A
:1016A000FEF7F2FE00BFFEE710BD0000480000207C
:1016B00004ED00E09D2200083C2121214F532041F0
:1016C00073736572742121213E2066756E63203D1F
:1016D0002025732C206C696E653D25640A0000008E
:1016E00010B51148006880B900BF502080F3118800
:1016F000BFF34F8FBFF36F8F00BF40F2BB120B4998
:101700000BA0FEF7C1FE00BFFEE707480068401EC1
:10171000054908600846006820B9002080F3118858
:1017200000BF00BF10BD000048000020B02200082C
:101730003C2121214F532041737365727421212173
:101740003E2066756E63203D2025732C206C696EEB
:10175000653D25640A00000070B506463546002E3A
:1017600050D0083D2C46284960680968084008B1F7
:10177000012000E0002080B900BF502080F31188D4
:10178000BFF34F8FBFF36F8F00BF4FF491721F49AC
:101790001FA0FEF779FE00BFFEE7206808B9012010
:1017A00000E0002080B900BF502080F31188BFF313
:1017B0004F8FBFF36F8F00BF40F22312134914A065
:1017C000FEF762FE00BFFEE70F4960680968084047
:1017D000C0B12068B0B90C4960680968884360608E
:1017E00000F0F0F81449606809680844124908607C
:1017F0002046FFF7EFF911480068401C0F490860C8
:1018000000F054FB70BD000070000020EE220008C4
:101810003C2121214F532041737365727421212192
:101820003E2066756E63203D2025732C206C696E0A
:10183000653D25640A000000600000206C00002067
:1018400000204FF0E02108618861064800684FF4ED
:101850007A71B0FBF1F0401E4FF0E02148610720A3
:10186000086170470400002070B50446002504B3E9
:101870001548006808B9012000E0002080B900BFC9
:10188000502080F31188BFF34F8FBFF36F8F00BFDD
:1018900040F246520D490EA0FEF7F6FD00BFFEE7EE
:1018A00000F090F800212046FEF7C0FF00F0FEFA9D
:1018B00005463DB94FF080500F490860BFF34F8F88
:1018C000BFF36F8F70BD0000440000206D20000842
:1018D0003C2121214F5320417373657274212121D2
:1018E0003E2066756E63203D2025732C206C696E4A
:1018F000653D25640A00000004ED00E01CB51E48AB
:1019000000210B468022CDE900101CA11D4800F0EB
:10191000CDF90446012C15D100BF502080F3118869
:10192000BFF34F8FBFF36F8F00BF4FF0FF301649EB
:10193000086001201549086000201549086000F082
:10194000B9F816E0601C08B1012000E0002080B961
:1019500000BF502080F31188BFF34F8FBFF36F8F0C
:1019600000BF40F63D020B490BA0FEF78DFD00BF06
:10197000FEE7134800681CBD3C00002049444C456C
:1019800000000000510A0008380000202400002058
:101990001C000020CC2000083C2121214F53204175
:1019A00073736572742121213E2066756E63203D3C
:1019B0002025732C206C696E653D25640A000000AB
:1019C0004000002002480068401C01490860704740
:1019D0004400002010B52748006818B101202649AE
:1019E000086046E000202449086024480068006838
:1019F00022490968096B884205D8204801683431BA
:101A00000068FFF7D5FD1E480068B0FA80F0C0F10D
:101A10001F0404EB84001B4951F8200008B1012089
:101A200000E0002080B900BF502080F31188BFF390
:101A30004F8FBFF36F8F00BF40F6FE32124913A0E5
:101A4000FEF722FD00BFFEE704EB84010D4A02EB26
:101A5000810041684968416000F1080142688A429A
:101A600002D14168496841604168C968034A116010
:101A700000BF10BD440000202C0000200800002002
:101A80002000002078000020222100083C21212194
:101A90004F53204173736572742121213E20667576
:101AA0006E63203D2025732C206C696E653D256496
:101AB0000A0000001CB55E4800685E49884201D0FB
:101AC000012000E0002080B900BF502080F3118881
:101AD000BFF34F8FBFF36F8F00BF40F241125649E3
:101AE00056A0FEF7D1FC00BFFEE7514800685149FF
:101AF000491E884201D0012000E0002080B900BFCB
:101B0000502080F31188BFF34F8FBFF36F8F00BF5A
:101B10004FF4A172484949A0FEF7B6FC00BFFEE7AA
:101B2000504C204600780190FF202146087008465E
:101B3000007800909DF8000000F0F0009DF8001083
:101B4000884201D1012000E0002080B900BF502070
:101B500080F31188BFF34F8FBFF36F8F00BF40F248
:101B60005B12354935A0FEF78FFC00BFFEE79DF8FC
:101B7000000000F050003C49087007203B49086015
:101B800009E03A480068401E384908609DF80000A6
:101B90004006000E00909DF8000000F080008028B4
:101BA000EFD032480068C0F10700042801D10120BD
:101BB00000E0002080B900BF502080F31188BFF3FF
:101BC0004F8FBFF36F8F00BF4FF4BC721A491BA039
:101BD000FEF75AFC00BFFEE72448006800022349D4
:101BE00008600846008800F4E06008601D4901981C
:101BF00008700F482030006840F470000C49203114
:101C000008600846006840F070400860FFF718FE62
:101C1000002017490860FEF7BBFA1648006840F03C
:101C2000404014490860FEF79FFA00201CBD0000E8
:101C300000ED00E071C20F41772200083C21212114
:101C40004F53204173736572742121213E206675C4
:101C50006E63203D2025732C206C696E653D2564E4
:101C60000A00000000E400E04C00002050000020CA
:101C70004800002034EF00E010B500BF502080F392
:101C80001188BFF34F8FBFF36F8F00BF00F04EF886
:101C900018B14FF080500449086000BF002080F365
:101CA000118800BF10BD000004ED00E02DE9FF4FDA
:101CB00085B0804689461746DDE912ABB800FFF7CC
:101CC0001DF8064656B14C20FFF718F804460CB133
:101CD000266304E03046FFF73FFD00E000247CB1BE
:101CE0000020CDE900ABCDE902403A4649464046E6
:101CF000089BFEF7C1FE2046FEF7E4FD012501E04A
:101D00004FF0FF35284609B0BDE8F08F0549096856
:101D100009B9012005E00449096809B9022000E079
:101D20000020704724000020440000202DE9F041ED
:101D30004FF000084748006800286FD14648006807
:101D4000451C45480560002D28D1444800680068BE
:101D500008B9012000E0002080B900BF502080F3C6
:101D60001188BFF34F8FBFF36F8F00BF40F6C322C0
:101D70003B493CA0FEF788FB00BFFEE737480768F9
:101D8000424800683549086040480760404800689C
:101D9000401C3F490860FEF751FF00BF3D48006806
:101DA00085423DD300BF2D480068006808B9012076
:101DB00000E0002020B14FF0FF30364908602EE0EF
:101DC00026480068C068C4686668B54202D23148D7
:101DD000066024E0201DFFF7B1FBA06A18B104F1F2
:101DE0001800FFF7ABFB94F82C10012088402A491B
:101DF0000968084328490860E16A01EB8101274A24
:101E000002EB8100211DFFF717FC2549E06A0968F4
:101E1000C96A8842C7D34FF00108C4E712E000BF87
:101E20001F480068C06A00EB80001C4951F8200080
:101E3000012801D94FF001081A48006808B14FF095
:101E4000010804E018480068401C17490860404633
:101E5000BDE8F081440000201C0000200C000020A0
:101E60000F2100083C2121214F53204173736572DB
:101E7000742121213E2066756E63203D2025732C40
:101E8000206C696E653D25640A000000100000208A
:101E900030000020380000202000002078000020C2
:101EA000080000202C0000202800002070B500242D
:101EB00000263948006880B900BF502080F311889F
:101EC000BFF34F8FBFF36F8F00BF4FF40B623349E7
:101ED00033A0FEF7D9FA00BFFEE7FFF7B9FB2E48A3
:101EE0000068401E2C4908600846006800284FD151
:101EF0003548006800284BD024E03448C068C468E6
:101F000004F11800FFF71AFB201DFFF717FB94F8E8
:101F10002C10012088402E49096808432C4908608C
:101F2000E16A01EB81012B4A02EB8100211DFFF7E1
:101F300083FB2949E06A0968C96A884202D3012003
:101F4000264908602148006808B9012000E0002007
:101F50000028D2D00CB1FEF771FE2148056865B1AA
:101F600000BFFFF7E3FE10B101201C4908606D1EA1
:101F7000002DF6D100201A4908601848006838B1D1
:101F80000126300717490860BFF34F8FBFF36F8FEB
:101F9000FFF7A6FB304670BD44000020E02000089B
:101FA0003C2121214F5320417373657274212121FB
:101FB0003E2066756E63203D2025732C206C696E73
:101FC000653D25640A00000018000020040100207F
:101FD0002000002078000020080000202C000020B5
:101FE0002800002004ED00E04E4D495F48616E641A
:101FF0006C657200486172644661756C745F48611B
:102000006E646C6572004D656D4D616E6167655FF4
:1020100048616E646C6572004275734661756C74DC
:102020005F48616E646C65720055736167654661F7
:10203000756C745F48616E646C657200707276498D
:102040006E697469616C6973654E65775461736B11
:1020500000765461736B44656C65746500785461F7
:10206000736B44656C6179556E74696C007654616C
:10207000736B44656C617900765461736B5072695F
:102080006F7269747953657400765461736B53751C
:102090007370656E64007072765461736B4973542B
:1020A00061736B53757370656E646564007654611B
:1020B000736B526573756D6500785461736B52650F
:1020C00073756D6546726F6D495352007654617336
:1020D0006B53746172745363686564756C657200E8
:1020E000785461736B526573756D65416C6C0070EB
:1020F000635461736B4765744E616D65007854611C
:10210000736B436174636855705469636B730078D3
:102110005461736B496E6372656D656E7454696367
:102120006B00765461736B537769746368436F6EA9
:102130007465787400765461736B506C6163654F9D
:102140006E4576656E744C69737400765461736B7A
:10215000506C6163654F6E556E6F72646572656435
:102160004576656E744C69737400785461736B5274
:10217000656D6F766546726F6D4576656E744C69F8
:10218000737400765461736B52656D6F7665467239
:102190006F6D556E6F7264657265644576656E74B9
:1021A0004C69737400765461736B53657454696D34
:1021B000654F7574537461746500785461736B4333
:1021C0006865636B466F7254696D654F7574007511
:1021D0006C5461736B47656E657269634E6F7469A9
:1021E000667954616B6500785461736B47656E6501
:1021F0007269634E6F7469667957616974007854C7
:1022000061736B47656E657269634E6F7469667959
:1022100000785461736B47656E657269634E6F74C5
:1022200069667946726F6D49535200765461736BDB
:1022300047656E657269634E6F7469667947697642
:102240006546726F6D49535200785461736B4765F0
:102250006E657269634E6F746966795374617465F3
:10226000436C656172007072765461736B45786976
:10227000744572726F720078506F72745374617229
:10228000745363686564756C65720076506F727420
:10229000456E645363686564756C65720076506F53
:1022A0007274456E746572437269746963616C001F
:1022B00076506F72744578697443726974696361AA
:1022C0006C0076506F727456616C69646174654914
:1022D0006E746572727570745072696F7269747918
:1022E000007076506F72744D616C6C6F6300765045
:1022F0006F727446726565001823000800000020A4
:1023000078000000A804000890230008780000204E
:10231000C8480000B804000800000000000E2707AD
:1023200000000000000000000000000000000000AD
:10233000000000000000000000000000000000009D
:10234000000000000000000000000000000000008D
:102350000000000000000000040000000000000079
:10236000AAAAAAAA000000000000000000000000C5
:10237000000000000000000000000000000000005D
:10238000000000000000000000000000000000004D
:0400000508000131BD
:00000001FF
